:020000040800F2
:1000000000800120855D0008215600082F56000859
:10001000355600083B560008415600080000000015
:10002000000000000000000000000000475600082B
:10003000555600080000000063560008715600087D
:10004000D55D0008D55D0008D55D0008D55D0008C8
:10005000D55D0008D55D0008D55D0008D55D0008B8
:10006000D55D0008D55D0008D55D0008D55D0008A8
:10007000D55D0008D55D0008D55D0008D55D000898
:100080007D56000891560008D55D0008D55D000832
:10009000D55D0008D55D0008D55D0008D55D000878
:1000A000D55D0008D55D0008D55D0008D55D000868
:1000B000D55D0008D55D0008D55D0008D55D000858
:1000C000D55D0008D55D0008D55D0008D55D000848
:1000D000D55D0008D55D0008A5560008D55D00086F
:1000E000D55D0008D55D0008D55D0008D55D000828
:1000F000D55D0008D55D0008D55D0008D55D000818
:10010000D55D0008D55D0008B9560008D55D00082A
:10011000D55D0008D55D0008D55D0008D55D0008F7
:10012000D55D0008D55D0008D55D0008D55D0008E7
:10013000D55D0008D55D0008D55D0008D55D0008D7
:10014000D55D0008D55D0008D55D0008D55D0008C7
:10015000D55D0008D55D0008D55D0008D55D0008B7
:10016000D55D0008D55D0008D55D0008D55D0008A7
:10017000D55D0008D55D0008D55D000800000000D1
:08018000D55D0008D55D000803
:1001880010B5054C237833B9044B13B10448AFF3C9
:1001980000800123237010BD18000020000000001B
:1001A800305E000808B5034B1BB103490348AFF3A1
:1001B800008008BD000000001C000020305E000820
:1001C80053B94AB9002908BF00281CBF4FF0FF31B6
:1001D8004FF0FF3000F07AB9ADF1080C6DE904CEAC
:1001E80000F006F8DDF804E0DDE9022304B070470A
:1001F8002DE9F0478C460D460446089E002B51D148
:100208008A4217466DD9B2FA82FEBEF1000F0BD0B2
:10021800CEF1200C01FA0EF520FA0CFC02FA0EF7CA
:100228004CEA050C00FA0EF44FEA174A250CBCFB01
:10023800FAF81FFA87F90AFB18CC45EA0C4508FBBF
:1002480009F3AB420AD9ED1908F1FF3280F0238196
:10025800AB4240F22081A8F102083D44ED1AA4B255
:10026800B5FBFAF00AFB105544EA054400FB09F90E
:10027800A14509D9E41900F1FF3380F00A81A145AD
:1002880040F2078102383C44A4EB090440EA0840E4
:100298000021002E61D024FA0EF40023346073602C
:1002A800BDE8F0878B4207D9002E54D0002186E89C
:1002B80021000846BDE8F087B3FA83F1002940F031
:1002C8008E80AB4202D3824200F2FA80841A65EB38
:1002D80003050120AC46002E3FD086E81010BDE88B
:1002E800F08712B90127B7FBF2F7B7FA87FEBEF11C
:1002F800000F34D1EB1B3A0C1FFA87FC0121B3FB2A
:10030800F2F8250C02FB183345EA03450CFB08F309
:10031800AB4207D9ED1908F1FF3002D2AB4200F227
:10032800D1808046ED1AA3B2B5FBF2F002FB10555E
:1003380043EA05440CFB00FCA44507D9E41900F185
:10034800FF3302D2A44500F2B8801846A4EB0C048F
:1003580040EA08409DE731463046BDE8F087CEF1D7
:10036800200405FA0EF307FA0EF720FA04F83A0CFF
:1003780025FA04F448EA0308B4FBF2F14FEA1845F9
:1003880002FB11441FFA87FC45EA044501FB0CF304
:10039800AB4200FA0EF409D9ED1901F1FF3080F0F3
:1003A8008A80AB4240F2878002393D44EB1A1FFA3B
:1003B80088F5B3FBF2F002FB103345EA034500FB76
:1003C8000CF3AB4207D9ED1900F1FF386FD2AB42FD
:1003D8006DD902383D44EB1A40EA01418FE7C1F17B
:1003E800200722FA07F88B4005FA01F448EA0303CC
:1003F80020FA07FE4FEA134CFD404EEA040EB5FB07
:10040800FCF94FEA1E440CFB19551FFA83F844EA1D
:10041800054509FB08F4AC4202FA01F200FA01FAB8
:1004280008D9ED1809F1FF3043D2AC4241D9A9F1FE
:1004380002091D442D1B1FFA8EFEB5FBFCF00CFBB8
:1004480010554EEA054400FB08F8A04507D9E41802
:1004580000F1FF3529D2A04527D902381C4440EACB
:100468000940A4EB0804A0FB02894C45C6464D464A
:1004780015D312D056B1BAEB0E0364EB050404FA97
:1004880007F7CB401F43CC40376074600021BDE8BC
:10049800F0871846F8E69046E0E6C245EAD2B8EB9F
:1004A800020E69EB03050138E4E72846D7E7404622
:1004B80091E78146BEE7014678E702383C4445E7C4
:1004C800084608E7A8F102083D442BE7704700BF3B
:1004D80080B582B000AF0023FB710C4A0B4B1B6840
:1004E80043F480731360032000F01AF9002000F031
:1004F8000FF80346002B02D00123FB7101E005F041
:1005080067F8FB7918460837BD4680BD00200240D1
:1005180080B584B000AF78600023FB730C4B1B6878
:100528000C4AA2FB03239B09184600F02EF9034648
:10053800002B02D00123FB7305E0002279684FF0FD
:10054800FF3000F0F8F8FB7B18461037BD4680BD39
:1005580014000020D34D621080B400AF044B1B6818
:100568000133034A136000BFBD465DF8047B704742
:100578004000002080B400AF034B1B681846BD46FE
:100588005DF8047B704700BF4000002080B485B050
:1005980000AF78607B6803F00703FB600C4BDB68F7
:1005A800BB60BA684FF6FF031340BB60FB681A02D2
:1005B800BB68134343F0BF6343F40033BB60044A92
:1005C800BB68D36000BF1437BD465DF8047B704735
:1005D80000ED00E080B400AF044BDB681B0A03F0B9
:1005E80007031846BD465DF8047B704700ED00E040
:1005F80080B483B000AF0346FB71094997F907300F
:100608005B09FA7902F01F02012000FA02F241F8B0
:10061800232000BF0C37BD465DF8047B704700BF40
:1006280000E100E080B483B000AF03463960FB719D
:1006380097F90730002B0BDA0D49FB7903F00F030C
:10064800043B3A68D2B21201D2B20B441A7609E0DE
:10065800084997F907303A68D2B21201D2B20B446E
:1006680083F8002300BF0C37BD465DF8047B704754
:1006780000ED00E000E100E080B489B000AFF86070
:10068800B9607A60FB6803F00703FB61FB69C3F19B
:100698000703042B28BF0423BB61FB690433062B23
:1006A80002D9FB69033B00E000237B610122BB699F
:1006B80002FA03F35A1EBB681A407B699A4001216B
:1006C8007B6901FA03F3591E7B680B4013431846F4
:1006D8002437BD465DF8047B7047000080B582B0C2
:1006E80000AF78607B68013BB3F1807F01D30123C1
:1006F8000FE00A4A7B68013B53600F214FF0FF303F
:10070800FFF790FF054B00229A60044B07221A60FE
:10071800002318460837BD4680BD00BF10E000E042
:1007280080B582B000AF78607868FFF72FFF00BF10
:100738000837BD4680BD80B586B000AF0346B960B6
:100748007A60FB7300237B61FFF744FF78617A6866
:10075800B9687869FFF790FF024697F90F3011469C
:100768001846FFF75FFF00BF1837BD4680BD80B54C
:1007780082B000AF0346FB7197F907301846FFF7C0
:1007880037FF00BF0837BD4680BD80B582B000AFD7
:1007980078607868FFF7A2FF034618460837BD4619
:1007A80080BD000080B485B000AF78607B68002B06
:1007B80001D1012398E07B681B681A464D4B9A4289
:1007C8000FD87B681B681A464B4B13444B4AA2FB55
:1007D80003231B099A007B685A647B68484A1A6499
:1007E8000EE07B681B681A46464B1344434AA2FB3B
:1007F80003231B099A007B685A647B68424A1A647F
:100808007B68022283F825207B681B681B68FB60D5
:10081800FB6823F4FF4323F07003FB607B689A684E
:100828007B68DB681A437B681B691A437B685B69D2
:100838001A437B689B691A437B68DB691A437B68A8
:100848001B6A1343FA681343FB607B681B68FA68EA
:100858001A607B689B68B3F5804F39D07B681B6C46
:10086800274A93421AD12949284B1A687B685B6C3E
:1008780003F01C030F2000FA03F3DB4313400B6063
:100888002248224B1A687B6859687B685B6C03F0C6
:100898001C0301FA03F31343036019E01C491C4BC2
:1008A8001A687B685B6C03F01C030F2000FA03F3E3
:1008B800DB4313400B601648154B1A687B68596870
:1008C8007B685B6C03F01C0301FA03F313430360BA
:1008D8007B680022DA637B68012283F825207B6825
:1008E800002283F82420002318461437BD465DF8FB
:1008F800047B704707040240F8FFFDBFCDCCCCCC89
:1009080000000240F8FBFDBF00040240A8000240BE
:10091800A804024080B586B000AFF860B9607A607C
:100928003B600023FB75FB6893F82430012B01D151
:1009380002234BE0FB68012283F82420FB6893F82C
:100948002530DBB2012B3AD1FB68022283F825203F
:10095800FB680022DA63FB681B68FA681268126891
:1009680022F001021A603B687A68B968F86800F0FA
:1009780021F9FB681B6B002B08D0FB681B68FA6821
:100988001268126842F00E021A600FE0FB681B68DA
:10099800FA681268126822F004021A60FB681B6881
:1009A800FA681268126842F00A021A60FB681B684B
:1009B800FA681268126842F001021A6005E0FB68E2
:1009C800002283F824200223FB75FB7D1846183784
:1009D800BD4680BD80B584B000AF78600023FB734E
:1009E8007B6893F82530DBB2022B05D07B680422A4
:1009F800DA630123FB7329E07B681B687A68126855
:100A0800126822F00E021A607B681B687A68126806
:100A1800126822F001021A607B681B6C7A68526CBB
:100A280002F01C02012101FA02F25A607B680122DD
:100A380083F825207B68002283F824207B689B6B41
:100A4800002B03D07B689B6B78689847FB7B184624
:100A58001037BD4680BD80B584B000AF78607B6834
:100A68001B6C1B68FB607B681B681B68BB607B6832
:100A78005B6C03F01C0304229A40FB681340002BB4
:100A880026D0BB6803F00403002B21D07B681B68C9
:100A98001B6803F02003002B07D17B681B687A686A
:100AA8001268126822F004021A607B681B6C7A686C
:100AB800526C02F01C02042101FA02F25A607B68AF
:100AC8001B6B002B71D07B681B6B786898476CE0B8
:100AD8007B685B6C03F01C0302229A40FB6813409E
:100AE800002B2ED0BB6803F00203002B29D07B68B3
:100AF8001B681B6803F02003002B0BD17B681B6865
:100B08007A681268126822F00A021A607B68012269
:100B180083F825207B681B6C7A68526C02F01C02F3
:100B2800022101FA02F25A607B68002283F824202D
:100B38007B68DB6A002B38D07B68DB6A786898476B
:100B480033E07B685B6C03F01C0308229A40FB6867
:100B58001340002B2AD0BB6803F00803002B25D0D4
:100B68007B681B687A681268126822F00E021A60A5
:100B78007B681B6C7A68526C02F01C02012101FA36
:100B880002F25A607B680122DA637B68012283F8EB
:100B980025207B68002283F824207B685B6B002B70
:100BA80004D07B685B6B7868984700BF00BF10373C
:100BB800BD4680BD80B485B000AFF860B9607A608A
:100BC8003B60FB681B6CFA68526C02F01C02012146
:100BD80001FA02F25A60FB681B683A685A60FB68BF
:100BE8009B68102B08D1FB681B687A689A60FB68C1
:100BF8001B68BA68DA6007E0FB681B68BA689A6025
:100C0800FB681B687A68DA6000BF1437BD465DF878
:100C1800047B704780B487B000AF786039600023E8
:100C28007B617FE13B681A6801217B6901FA03F364
:100C38001340FB60FB68002B00F071813B685B6828
:100C4800022B03D03B685B68122B23D17B69DA083F
:100C58007B68083253F822303B617B6903F0070355
:100C68009B000F2202FA03F3DB433A6913403B610E
:100C78003B681A697B6903F007039B0002FA03F3D8
:100C88003A6913433B617B69DA087B680832396942
:100C980043F822107B681B683B617B695B00032279
:100CA80002FA03F3DB433A6913403B613B685B6834
:100CB80003F003027B695B0002FA03F33A6913430A
:100CC8003B617B683A691A603B685B68012B0BD013
:100CD8003B685B68022B07D03B685B68112B03D02D
:100CE8003B685B68122B30D17B689B683B617B69F2
:100CF8005B00032202FA03F3DB433A6913403B61CA
:100D08003B68DA687B695B0002FA03F33A691343CC
:100D18003B617B683A699A607B685B683B6101224A
:100D28007B6902FA03F3DB433A6913403B613B6892
:100D38005B681B0903F001027B6902FA03F33A6955
:100D480013433B617B683A695A603B685B6803F010
:100D58000303032B18D17B68DB6A3B6101227B69A3
:100D680002FA03F3DB433A6913403B613B685B6873
:100D7800DB0803F001027B6902FA03F33A691343C3
:100D88003B617B683A69DA627B68DB683B617B6957
:100D98005B00032202FA03F3DB433A6913403B6129
:100DA8003B689A687B695B0002FA03F33A6913436C
:100DB8003B617B683A69DA603B685B6803F08053A3
:100DC800002B00F0AC805E4A5D4B1B6E43F00103C4
:100DD80013665B4B1B6E03F00103BB60BB68594A8B
:100DE8007B699B08023352F823303B617B6903F02F
:100DF80003039B000F2202FA03F3DB433A69134013
:100E08003B617B68B3F1904F25D07B684E4A934293
:100E18001FD07B684D4A934219D07B684C4A934255
:100E280013D07B684B4A93420DD07B684A4A934261
:100E380007D07B68494A934201D106230CE0072377
:100E48000AE0052308E0042306E0032304E0022364
:100E580002E0012300E000237A6902F00302920015
:100E680093403A6913433B6136497B699B080233D7
:100E78003A6941F823203A4B1B683B61FB68DB4326
:100E88003A6913403B613B685B6803F48033002B8D
:100E980003D03A69FB6813433B61314A3B691360ED
:100EA8002F4B5B683B61FB68DB433A6913403B614E
:100EB8003B685B6803F40033002B03D03A69FB6896
:100EC80013433B61264A3B695360254B9B683B6152
:100ED800FB68DB433A6913403B613B685B6803F49A
:100EE8008013002B03D03A69FB6813433B611C4A0B
:100EF8003B6993601A4BDB683B61FB68DB433A69EB
:100F080013403B613B685B6803F40013002B03D07C
:100F18003A69FB6813433B61114A3B69D3607B69BB
:100F280001337B613B681A687B6922FA03F3002B63
:100F38007FF478AE00BF1C37BD465DF8047B704770
:100F4800001002400000014000040048000800486A
:100F5800000C004800100048001400480018004821
:100F68000004014080B483B000AF78600B467B80FA
:100F780013467B707B78002B03D07A887B689A6154
:100F880002E07A887B689A6200BF0C37BD465DF83C
:100F9800047B704780B400AF044B1B6803F4C06344
:100FA8001846BD465DF8047B704700BF00700040DE
:100FB80080B485B000AF78607B68B3F5007F30D12E
:100FC800234B1B6803F4C063B3F5007F38D0204A75
:100FD8001F4B1B6823F4C06343F4007313601D4B5D
:100FE8001B68322202FB03F31B4AA2FB03239B0C60
:100FF8000133FB6002E0FB68013BFB60144B5B695B
:1010080003F48063B3F5806F02D1FB68002BF2D143
:101018000F4B5B6903F48063B3F5806F10D1032332
:101028000FE00B4B1B6803F4C063B3F5806F07D068
:10103800074A074B1B6823F4C06343F480631360BB
:10104800002318461437BD465DF8047B704700BF7F
:10105800007000401400002083DE1B4380B588B078
:1010680000AF78607B68002B01D1012353E3A34BC9
:101078009B6803F00C03BB61A04BDB6803F0030320
:101088007B617B681B6803F01003002B00F0DF8096
:10109800BB69002B07D0BB690C2B40F086807B69AD
:1010A800012B40F08280954B1B6803F00203002B54
:1010B80005D07B689B69002B01D101232BE37B685A
:1010C8001A6A8E4B1B6803F00803002B04D08B4B65
:1010D8001B6803F0F00305E0884BD3F894301B0934
:1010E80003F0F0039A4223D97B681B6A184600F084
:1010F800CBFC0346002B01D001230CE37F4A7F4B36
:101108001B6843F0080313607C497C4B1B6823F081
:10111800F0027B681B6A13430B607849774B5B6866
:1011280023F47F427B68DB691B0213434B6022E098
:10113800724A724B1B6843F0080313606F496F4B88
:101148001B6823F0F0027B681B6A13430B606B4932
:101158006A4B5B6823F47F427B68DB691B0213439D
:101168004B607B681B6A184600F08EFC0346002B18
:1011780001D00123CFE200F0B3FB01465F4B9B682F
:101188001B0903F00F035E4AD35C03F01F0321FA27
:1011980003F35C4A13600020FFF7BAF90346FB73B8
:1011A800FB7B002B52D0FB7BB5E27B689B69002B55
:1011B80032D0524A514B1B6843F001031360FFF7CA
:1011C800D9F9386108E0FFF7D5F902463B69D31A27
:1011D800022B01D903239EE2484B1B6803F002034C
:1011E800002BF0D0454A454B1B6843F008031360B9
:1011F8004249424B1B6823F0F0027B681B6A134389
:101208000B603E493D4B5B6823F47F427B68DB699A
:101218001B0213434B601AE0384A384B1B6823F013
:1012280001031360FFF7A6F9386108E0FFF7A2F998
:1012380002463B69D31A022B01D903236BE22F4BD9
:101248001B6803F00203002BF0D100E000BF7B68AD
:101258001B6803F00103002B72D0BB69082B05D073
:10126800BB690C2B0ED17B69032B0BD1234B1B685D
:1012780003F40033002B62D07B685B68002B5ED1DF
:10128800012348E27B685B68B3F5803F06D11B4ABF
:101298001A4B1B6843F4803313601DE07B685B685E
:1012A800B3F5A02F0CD1154A144B1B6843F48023C7
:1012B8001360124A114B1B6843F4803313600BE030
:1012C8000E4A0E4B1B6823F4803313600B4A0B4BFA
:1012D8001B6823F4802313607B685B68002B1AD09B
:1012E800FFF748F938610FE0FFF744F902463B6918
:1012F800D31A642B08D903230DE200BF0010024063
:10130800485E000814000020AE4B1B6803F400334D
:10131800002BE9D014E0FFF72DF9386108E0FFF75A
:1013280029F902463B69D31A642B01D90323F2E158
:10133800A44B1B6803F40033002BF0D100E000BF7E
:101348007B681B6803F00203002B60D0BB69042B89
:1013580005D0BB690C2B19D17B69022B16D1994B8F
:101368001B6803F48063002B05D07B68DB68002BC7
:1013780001D10123CFE19349924B5B6823F0F852E6
:101388007B681B691B0613434B6040E07B68DB6886
:10139800002B23D08B4A8B4B1B6843F4807313605C
:1013A800FFF7E8F8386108E0FFF7E4F802463B6920
:1013B800D31A022B01D90323ADE1824B1B6803F436
:1013C8008063002BF0D07F497E4B5B6823F0F85296
:1013D8007B681B691B0613434B6018E0794A794BFD
:1013E8001B6823F480731360FFF7C4F8386108E0C2
:1013F800FFF7C0F802463B69D31A022B01D9032331
:1014080089E1704B1B6803F48063002BF0D17B6883
:101418001B6803F00803002B3CD07B685B69002B3A
:101428001CD0684A674BD3F8943043F00103C2F8E4
:101438009430FFF79FF8386108E0FFF79BF8024601
:101448003B69D31A022B01D9032364E15D4BD3F81E
:10145800943003F00203002BEFD01BE0594A594B9C
:10146800D3F8943023F00103C2F89430FFF782F8E0
:10147800386108E0FFF77EF802463B69D31A022B71
:1014880001D9032347E14F4BD3F8943003F002030B
:10149800002BEFD17B681B6803F00403002B00F0DE
:1014A800A5800023FB77474B9B6D03F08053002BEF
:1014B8000DD1444A434B9B6D43F080539365414B98
:1014C8009B6D03F08053BB60BB680123FB773E4BE9
:1014D8001B6803F48073002B18D13B4A3A4B1B68F6
:1014E80043F480731360FFF745F8386108E0FFF7AD
:1014F80041F802463B69D31A022B01D903230AE1BA
:10150800314B1B6803F48073002BF0D07B689B6819
:10151800012B08D12B4A2B4BD3F8903043F0010311
:10152800C2F8903024E07B689B68052B10D1254ACF
:10153800244BD3F8903043F00403C2F89030214A8A
:10154800204BD3F8903043F00103C2F890300FE0FD
:101558001C4A1C4BD3F8903023F00103C2F890309A
:10156800184A184BD3F8903023F00403C2F890308F
:101578007B689B68002B16D0FEF7FCFF38610AE0F9
:10158800FEF7F8FF02463B69D31A41F288329342CC
:1015980001D90323BFE00B4BD3F8903003F00203CB
:1015A800002BEDD019E0FEF7E5FF38610EE0FEF7FD
:1015B800E1FF02463B69D31A41F28832934205D9CA
:1015C8000323A8E00010024000700040544BD3F8F9
:1015D800903003F00203002BE9D1FB7F012B05D1EA
:1015E8004F4A4F4B9B6D23F0805393657B689B6AF2
:1015F800002B00F08F80BB690C2B00F089807B6882
:101608009B6A022B56D1464A454B1B6823F08073D0
:101618001360FEF7AFFF386108E0FEF7ABFF024644
:101628003B69D31A022B01D9032374E03C4B1B6896
:1016380003F00073002BF0D139497B681B6B013B29
:101648001A017B685B6B1B021A437B689B6B1B0947
:101658005B041A437B68DB6A1A437B68DB6B5B08B5
:10166800013B5B051A437B681B6C5B08013B5B060F
:101678001343CB602A4A2A4B1B6843F080731360DC
:10168800274A274BDB6843F08073D360FEF772FF6D
:10169800386108E0FEF76EFF02463B69D31A022B59
:1016A80001D9032337E01E4B1B6803F00073002B9E
:1016B800F0D02FE01A4A1A4B1B6823F0807313608E
:1016C800174B1B6803F02053002B05D1144A144B09
:1016D800DB6823F00303D360114A114BDB6823F066
:1016E800887323F48033D360FEF744FF386108E041
:1016F800FEF740FF02463B69D31A022B01D90323A8
:1017080009E0074B1B6803F00073002BF0D101E0E0
:10171800012300E0002318462037BD4680BD00BFE6
:101728000010024080B584B000AF786039607B68F3
:10173800002B01D10123C6E0654B1B6803F00702AB
:101748003B689A4210D26249614B1B6823F007023A
:101758003B6813430B605E4B1B6803F007023B6852
:101768009A4201D00123AEE07B681B6803F00103B5
:10177800002B4CD07B685B68032B07D1554B1B684B
:1017880003F00073002B21D101239CE07B685B6888
:10179800022B07D14F4B1B6803F40033002B15D1E4
:1017A800012390E07B685B68002B07D1494B1B68DD
:1017B80003F00203002B09D1012384E0454B1B6889
:1017C80003F48063002B01D101237CE04149414BA4
:1017D8009B6823F003027B685B6813438B60FEF70A
:1017E800C9FEF8600AE0FEF7C5FE0246FB68D31A98
:1017F80041F28832934201D9032364E0354B9B6858
:1018080003F00C027B685B689B009A42EBD17B6813
:101818001B6803F00203002B08D02E492D4B9B6850
:1018280023F0F0027B689B6813438B60284B1B688E
:1018380003F007023B689A4210D92549244B1B68DC
:1018480023F007023B6813430B60214B1B6803F02E
:1018580007023B689A4201D0012334E07B681B6889
:1018680003F00403002B08D01A491A4B9B6823F491
:10187800E0627B68DB6813438B607B681B6803F05E
:101888000803002B09D01349124B9B6823F46052BC
:101898007B681B69DB0013438B6000F021F801466D
:1018A8000C4B9B681B0903F00F030B4AD35C03F036
:1018B8001F0321FA03F3094A13600020FEF728FEEC
:1018C8000346FB72FB7A18461037BD4680BD00BF41
:1018D8000020024000100240485E0008140000206A
:1018E80080B489B000AF0023FB610023BB61464B85
:1018F8009B6803F00C033B61434BDB6803F0030375
:10190800FB603B69002B05D03B690C2B21D1FB68A0
:10191800012B1ED13C4B1B6803F00803002B07D199
:10192800394BD3F894301B0A03F00F03FB6105E031
:10193800354B1B681B0903F00F03FB61334AFB6936
:1019480052F82330FB613B69002B0DD1FB69BB6169
:101958000AE03B69042B02D12D4BBB6104E03B69D3
:10196800082B01D12B4BBB613B690C2B45D1264B76
:10197800DB6803F00303BB60234BDB681B0903F040
:10198800070301337B60BB68022B02D0032B0DD009
:1019980019E01F4A7B68B2FBF3F31B4AD268120AAC
:1019A80002F07F0202FB03F37B6119E0194A7B68AE
:1019B800B2FBF3F3144AD268120A02F07F0202FB68
:1019C80003F37B610CE0FA697B68B2FBF3F30E4A20
:1019D800D268120A02F07F0202FB03F37B6100BFA8
:1019E800094BDB685B0E03F0030301335B003B60CC
:1019F8007A693B68B2FBF3F3BB61BB6918462437CD
:101A0800BD465DF8047B704700100240605E000828
:101A18000024F40000127A0080B400AF034B1B6866
:101A28001846BD465DF8047B704700BF14000020CF
:101A380080B500AFFFF7F0FF0146064B9B681B0A15
:101A480003F00703044AD35C03F01F0321FA03F3EE
:101A5800184680BD00100240585E000880B500AFEF
:101A6800FFF7DAFF0146064B9B68DB0A03F0070322
:101A7800044AD35C03F01F0321FA03F3184680BD20
:101A880000100240585E000880B586B000AF78604C
:101A980000233B612A4B9B6D03F08053002B03D03E
:101AA800FFF778FA786114E0254A254B9B6D43F0DF
:101AB80080539365224B9B6D03F08053FB60FB685A
:101AC800FFF768FA78611E4A1D4B9B6D23F080531F
:101AD80093657B69B3F5007F0BD17B68802B19D99F
:101AE8007B68A02B02D902233B6113E001233B61F1
:101AF80010E07B68802B02D903233B610AE07B68F6
:101B0800802B02D102233B6104E07B68702B01D15A
:101B180001233B610B490B4B1B6823F007023B6910
:101B280013430B60074B1B6803F007023B699A429B
:101B380001D0012300E0002318461837BD4680BDB8
:101B4800001002400020024080B586B000AF7860E7
:101B58000023FB740023BB747B681B6803F40063D9
:101B6800002B3FD07B685B6EB3F5800F1CD0B3F5BC
:101B7800800F02D8002B0ED01FE0B3F5000F03D062
:101B8800B3F5400F1CD018E0854A854BDB6843F459
:101B98008033D36015E07B6804330021184600F0D9
:101BA800B9FA0346FB740CE07B6820330021184621
:101BB80000F0A0FB0346FB7403E00123FB7400E084
:101BC80000BFFB7C002B0BD17549754BD3F88830CF
:101BD80023F440027B685B6E1343C1F8883001E050
:101BE800FB7CBB747B681B6803F48053002B3FD0DD
:101BF8007B689B6EB3F1807F1CD0B3F1807F02D8E5
:101C0800002B0ED01FE0B3F1007F03D0B3F1407F6B
:101C18001CD018E0624A624BDB6843F48033D3601F
:101C280015E07B6804330021184600F073FA034678
:101C3800FB740CE07B6820330021184600F05AFB47
:101C48000346FB7403E00123FB7400E000BFFB7C48
:101C5800002B0BD15249524BD3F8883023F04072F5
:101C68007B689B6E1343C1F8883001E0FB7CBB7432
:101C78007B681B6803F40033002B00F0A08000236E
:101C88007B74474B9B6D03F08053002B01D10123DC
:101C980000E00023002B0DD0414A414B9B6D43F0DF
:101CA800805393653E4B9B6D03F08053BB60BB68CC
:101CB80001237B743B4A3B4B1B6843F480731360DE
:101CC800FEF758FCF86009E0FEF754FC0246FB6892
:101CD800D31A022B02D90323FB7405E0314B1B688E
:101CE80003F48073002BEFD0FB7C002B5CD12C4BD2
:101CF800D3F8903003F440737B617B69002B1FD0CD
:101D08007B68D3F884207B699A4219D0244BD3F896
:101D1800903023F440737B61214A214BD3F89030F3
:101D280043F48033C2F890301D4A1D4BD3F89030ED
:101D380023F48033C2F89030194A7B69C2F8903096
:101D48007B6903F00103002B16D0FEF713FCF86043
:101D58000BE0FEF70FFC0246FB68D31A41F288320B
:101D6800934202D90323FB7406E00D4BD3F890305D
:101D780003F00203002BECD0FB7C002B0CD10849AC
:101D8800074BD3F8903023F440727B68D3F8843043
:101D98001343C1F8903009E0FB7CBB7406E000BF38
:101DA8000010024000700040FB7CBB747B7C012B60
:101DB80005D19E4A9D4B9B6D23F0805393657B68AC
:101DC8001B6803F00103002B0AD09849974BD3F8FE
:101DD800883023F003027B689B6B1343C1F888307B
:101DE8007B681B6803F00203002B0AD08F498F4BD6
:101DF800D3F8883023F00C027B68DB6B1343C1F8FF
:101E080088307B681B6803F00403002B0AD08749DD
:101E1800864BD3F8883023F030027B681B6C134361
:101E2800C1F888307B681B6803F00803002B0AD0D0
:101E38007E497E4BD3F8883023F0C0027B685B6C08
:101E48001343C1F888307B681B6803F01003002B2C
:101E58000AD07649754BD3F8883023F440727B68F2
:101E68009B6C1343C1F888307B681B6803F0200320
:101E7800002B0AD06D496D4BD3F8883023F44062AB
:101E88007B68DB6C1343C1F888307B681B6803F4FC
:101E98000073002B0AD06549644BD3F8883023F4CB
:101EA80040227B68DB6D1343C1F888307B681B6870
:101EB80003F48063002B0AD05C495C4BD3F888306C
:101EC80023F440127B681B6E1343C1F888307B688B
:101ED8001B6803F04003002B0AD05449534BD3F836
:101EE800883023F440527B681B6D1343C1F8883057
:101EF8007B681B6803F08003002B0AD04B494B4BCF
:101F0800D3F8883023F440427B685B6D1343C1F8F3
:101F180088307B681B6803F48073002B0AD0434920
:101F2800424BD3F8883023F440327B689B6D1343CF
:101F3800C1F888307B681B6803F40053002B28D055
:101F48003A493A4BD3F8883023F040627B68DB6E1D
:101F58001343C1F888307B68DB6EB3F1006F06D19C
:101F6800324A324BDB6843F48013D36011E07B685C
:101F7800DB6EB3F1806F0CD17B6804330121184606
:101F880000F0C8F80346FB74FB7C002B01D0FB7CF7
:101F9800BB747B681B6803F40023002B28D02349FB
:101FA800224BD3F8883023F040627B681B6F1343C1
:101FB800C1F888307B681B6FB3F1006F06D11B4AEC
:101FC8001A4BDB6843F48013D36011E07B681B6F06
:101FD800B3F1806F0CD17B6804330121184600F0FF
:101FE80099F80346FB74FB7C002B01D0FB7CBB7487
:101FF8007B681B6803F48023002B2BD00B490B4B09
:10200800D3F8883023F040627B685B6F1343C1F8D4
:1020180088307B685B6FB3F1006F09D1034A034BCB
:10202800DB6843F48013D36014E000BF0010024063
:102038007B685B6FB3F1806F0CD17B68043301213F
:10204800184600F067F80346FB74FB7C002B01D0B0
:10205800FB7CBB747B681B6803F48043002B2FD088
:102068002B492B4BD3F8883023F040527B689B6F69
:102078001343C1F888307B689B6FB3F1805F0DD143
:102088007B6804330221184600F044F80346FB74C9
:10209800FB7C002B14D0FB7CBB7411E07B689B6F2E
:1020A800B3F1005F0CD17B6820330221184600F0A1
:1020B80021F90346FB74FB7C002B01D0FB7CBB742D
:1020C8007B681B6803F40043002B0AD01049104BAF
:1020D800D3F8883023F080427B68DB6F1343C1F864
:1020E80088307B681B6803F48033002B0BD00849C9
:1020F800074BD3F8883023F000427B68D3F8803050
:102108001343C1F88830BB7C18461837BD4680BDDC
:102118000010024080B584B000AF786039600023B9
:10212800FB73734BDB6803F00303002B18D0704B71
:10213800DB6803F003027B681B689A420DD17B6859
:102148001B68002B09D06A4BDB681B0903F00703E7
:102158005A1C7B685B689A4244D00123FB7341E0B8
:102168007B681B68022B0CD0032B13D0012B20D1CA
:102178005F4B1B6803F00203002B1DD10123FB7387
:102188001AE05B4B1B6803F48063002B16D1012314
:10219800FB7313E0564B1B6803F40033002B0FD17D
:1021A800534B1B6803F48023002B09D10123FB73D5
:1021B80006E00123FB7304E000BF02E000BF00E07B
:1021C80000BFFB7B002B0DD14948494BDB6823F04E
:1021D80073027B6819687B685B68013B1B010B43D2
:1021E8001343C360FB7B002B7DD1414A404B1B68E6
:1021F80023F080631360FEF7BDF9B86009E0FEF7CD
:10220800B9F90246BB68D31A022B02D90323FB7320
:1022180005E0374B1B6803F00063002BEFD1FB7B15
:10222800002B60D13B68002B11D13148304B1B6922
:1022380023F41F3323F440737A68926811027A6892
:10224800D268120952040A431343036127E03B682A
:10225800012B12D12648264B1B6923F4C00323F413
:10226800FE437A68926811027A6812695208013A44
:1022780052050A431343036111E01D481C4B1B69B7
:1022880023F0C06323F4FE437A68926811027A68E7
:1022980052695208013A52060A4313430361144A29
:1022A800134B1B6843F080631360FEF763F9B86053
:1022B80009E0FEF75FF90246BB68D31A022B02D980
:1022C8000323FB7305E00A4B1B6803F00063002B34
:1022D800EFD0FB7B002B06D10549054B1A697B68BB
:1022E8009B6913430B61FB7B18461037BD4680BDC5
:1022F8000010024080B584B000AF786039600023D8
:10230800FB73684BDB6803F00303002B18D0654BA5
:10231800DB6803F003027B681B689A420DD17B6877
:102328001B68002B09D05F4BDB681B0903F0070310
:102338005A1C7B685B689A4244D00123FB7341E0D6
:102348007B681B68022B0CD0032B13D0012B20D1E8
:10235800544B1B6803F00203002B1DD10123FB73B0
:102368001AE0504B1B6803F48063002B16D101233D
:10237800FB7313E04B4B1B6803F40033002B0FD1A6
:10238800484B1B6803F48023002B09D10123FB73FE
:1023980006E00123FB7304E000BF02E000BF00E099
:1023A80000BFFB7B002B0DD13E483E4BDB6823F082
:1023B80073027B6819687B685B68013B1B010B43F0
:1023C8001343C360FB7B002B67D1364A354B1B6830
:1023D80023F080531360FEF7CDF8B86009E0FEF7EC
:1023E800C9F80246BB68D31A022B02D90323FB7330
:1023F80005E02C4B1B6803F00053002BEFD1FB7B4F
:10240800002B4AD13B68002B11D12648254B5B692C
:1024180023F41F3323F440737A68926811027A68B0
:10242800D268120952040A431343436111E01D485C
:102438001C4B5B6923F0C06323F4FE437A689268FF
:1024480011027A6812695208013A52060A43134384
:102458004361144A134B1B6843F080531360FEF723
:1024680089F8B86009E0FEF785F80246BB68D31A18
:10247800022B02D90323FB7305E00A4B1B6803F008
:102488000053002BEFD0FB7B002B06D10549054BF1
:102498005A697B685B6913434B61FB7B18461037AD
:1024A800BD4680BD0010024080B582B000AF7860A4
:1024B8007B68002B01D101231DE07B6893F83D3038
:1024C800DBB2002B06D17B68002283F83C207868B9
:1024D80003F08CFA7B68022283F83D207B681A6837
:1024E8007B6804331946104600F0FCFC7B68012227
:1024F80083F83D20002318460837BD4680BD80B5C7
:1025080082B000AF78607B68002B01D101231DE009
:102518007B6893F83D30DBB2002B06D17B68002244
:1025280083F83C20786800F015F87B68022283F86D
:102538003D207B681A687B6804331946104600F012
:10254800D1FC7B68012283F83D2000231846083718
:10255800BD4680BD80B483B000AF786000BF0C3743
:10256800BD465DF8047B704780B582B000AF7860E7
:1025780039607B681B6801223968184601F0E0F968
:102588007B681B681F4A934213D07B681B681E4AEE
:1025980093420ED07B681B681C4A934209D07B6823
:1025A8001B681B4A934204D07B681B68194A9342F4
:1025B80001D1012300E00023002B07D07B681B68B2
:1025C8007A681268526C42F400425A647B681B684D
:1025D8009A68114B1340062B0FD07B681B689A68CA
:1025E8000D4B1340B3F5803F07D07B681B687A68B2
:1025F8001268126842F001021A6000231846083770
:10260800BD4680BD002C014000340140004001401F
:1026180000440140004801400700010080B582B035
:1026280000AF78607B68002B01D101231DE07B6837
:1026380093F83D30DBB2002B06D17B68002283F88B
:102648003C20786803F004FA7B68022283F83D2076
:102658007B681A687B6804331946104600F042FC10
:102668007B68012283F83D20002318460837BD46C1
:1026780080BD000080B582B000AF786039603B68EB
:102688000C2B41D801A252F823F000BFC92600083C
:10269800112700081127000811270008DB26000869
:1026A800112700081127000811270008ED26000847
:1026B800112700081127000811270008FF26000825
:1026C8007B681B687A681268D26842F00202DA6096
:1026D8001BE07B681B687A681268D26842F00402C3
:1026E800DA6012E07B681B687A681268D26842F088
:1026F8000802DA6009E07B681B687A681268D268A9
:1027080042F01002DA6000E000BF7B681B6801221B
:102718003968184601F014F97B681B689A680C4BF5
:102728001340062B0FD07B681B689A68084B134030
:10273800B3F5803F07D07B681B687A681268126817
:1027480042F001021A60002318460837BD4680BDD2
:102758000700010080B582B000AF78607B681B6815
:102768001B6903F00203022B22D17B681B68DB681C
:1027780003F00203022B1BD17B681B686FF0020277
:102788001A617B6801221A777B681B689B6903F0D2
:102798000303002B03D0786802F0E6FA05E07868B6
:1027A80000F081FB786800F088FB7B6800221A77CC
:1027B8007B681B681B6903F00403042B22D17B6828
:1027C8001B68DB6803F00403042B1BD17B681B68C0
:1027D8006FF004021A617B6802221A777B681B6813
:1027E8009B6903F44073002B03D0786802F0BCFAAD
:1027F80005E0786800F057FB786800F05EFB7B68BE
:1028080000221A777B681B681B6903F00803082BF2
:1028180022D17B681B68DB6803F00803082B1BD1F7
:102828007B681B686FF008021A617B6804221A77BC
:102838007B681B68DB6903F00303002B03D078680F
:1028480002F092FA05E0786800F02DFB786800F055
:1028580034FB7B6800221A777B681B681B6903F0CE
:102868001003102B22D17B681B68DB6803F0100370
:10287800102B1BD17B681B686FF010021A617B68F4
:1028880008221A777B681B68DB6903F44073002B06
:1028980003D0786802F068FA05E0786800F003FB76
:1028A800786800F00AFB7B6800221A777B681B684F
:1028B8001B6903F00103012B0ED17B681B68DB68E1
:1028C80003F00103012B07D17B681B686FF001023D
:1028D8001A61786800F0DDFA7B681B681B6903F0F1
:1028E8008003802B0ED17B681B68DB6803F08003B4
:1028F800802B07D17B681B686FF080021A617868AB
:1029080001F0AAF87B681B681B6903F48073B3F5B0
:10291800807F0ED17B681B68DB6803F08003802B07
:1029280007D17B681B686FF480721A61786801F0C0
:102938009DF87B681B681B6903F04003402B0ED190
:102948007B681B68DB6803F04003402B07D17B687A
:102958001B686FF040021A61786800F0B8FA7B686B
:102968001B681B6903F02003202B0ED17B681B68B2
:10297800DB6803F02003202B07D17B681B686FF00E
:1029880020021A61786801F05DF800BF0837BD467B
:1029980080BD80B584B000AFF860B9607A60FB682C
:1029A80093F83C30012B01D102238AE0FB68012215
:1029B80083F83C20FB68022283F83D207B68002BCB
:1029C8001BD1FB681868BB681968BB685A68BB6884
:1029D800DB6800F0F7FDFB681B68FA68126892690B
:1029E80022F00C029A61FB681B68FA681268916908
:1029F800BA6892680A439A615AE07B68042B1CD132
:102A0800FB681868BB681968BB685A68BB68DB68EC
:102A180000F075FEFB681B68FA681268926922F478
:102A280040629A61FB681B68FA6812689169BA6823
:102A3800926812020A439A613AE07B68082B1BD11C
:102A4800FB681868BB681968BB685A68BB68DB68AC
:102A580000F0C2FEFB681B68FA681268D26922F0AF
:102A68000C02DA61FB681B68FA681268D169BA68F7
:102A780092680A43DA611BE0FB681868BB6819684A
:102A8800BB685A68BB68DB6800F0E2FEFB681B683D
:102A9800FA681268D26922F44062DA61FB681B683E
:102AA800FA681268D169BA68926812020A43DA6150
:102AB800FB68012283F83D20FB68002283F83C2054
:102AC800002318461037BD4680BD000080B584B08D
:102AD80000AFF860B9607A60FB6893F83C30012B6E
:102AE80001D1022305E1FB68012283F83C20FB6841
:102AF800022283F83D207B68142B00F2F08001A2AB
:102B080052F823F0612B0008E72C0008E72C000896
:102B1800E72C0008A12B0008E72C0008E72C000888
:102B2800E72C0008E32B0008E72C0008E72C000836
:102B3800E72C0008232C0008E72C0008E72C0008E5
:102B4800E72C0008652C0008E72C0008E72C000893
:102B5800E72C0008A52C0008FB681B68B968184614
:102B680000F05AFAFB681B68FA681268926942F02A
:102B780008029A61FB681B68FA681268926922F079
:102B880004029A61FB681B68FA6812689169BA685E
:102B980012690A439A61A3E0FB681B68B968184682
:102BA80000F0CAFAFB681B68FA681268926942F476
:102BB80000629A61FB681B68FA681268926922F4DD
:102BC80080629A61FB681B68FA6812689169BA6842
:102BD800126912020A439A6182E0FB681B68B968AD
:102BE800184600F033FBFB681B68FA681268D26964
:102BF80042F00802DA61FB681B68FA681268D26959
:102C080022F00402DA61FB681B68FA681268D1696D
:102C1800BA6812690A43DA6162E0FB681B68B9683E
:102C2800184600F09BFBFB681B68FA681268D269BB
:102C380042F40062DA61FB681B68FA681268D269BC
:102C480022F48062DA61FB681B68FA681268D1694D
:102C5800BA68126912020A43DA6141E0FB681B682C
:102C6800B968184600F0E4FBFB681B68FA6812684C
:102C7800526D42F008025A65FB681B68FA681268D0
:102C8800526D22F004025A65FB681B68FA681268E4
:102C9800516DBA6812690A435A6521E0FB681B68DE
:102CA800B968184600F028FCFB681B68FA681268C7
:102CB800526D42F400625A65FB681B68FA68126834
:102CC800526D22F480625A65FB681B68FA681268C4
:102CD800516DBA68126912020A435A6500E000BFD2
:102CE800FB68012283F83D20FB68002283F83C2022
:102CF800002318461037BD4680BD00BF80B584B09C
:102D080000AF786039607B6893F83C30012B01D1C3
:102D18000223BAE07B68012283F83C207B68022208
:102D280083F83D207B681B689B68FB60FB6823F485
:102D3800803323F07703FB60FB6823F47F43FB6059
:102D48007B681B68FA689A603B681B68402B7AD0DE
:102D5800402B0DD8102B00F08680102B03D8002BA9
:102D680000F0818088E0202B7DD0302B7BD083E061
:102D7800702B18D0702B04D8502B44D0602B52D015
:102D88007AE0B3F5805F03D0B3F5005F28D073E035
:102D98007B681A687B681B689B6823F4803323F080
:102DA8000703936068E07B6818683B6899683B682C
:102DB8005A683B68DB6800F0A3FD7B681B689B686A
:102DC800FB60FB6823F4803323F07703FB60FB6828
:102DD80043F07703FB607B681B68FA689A604BE0F6
:102DE8007B6818683B6899683B685A683B68DB6889
:102DF80000F086FD7B681B687A681268926842F466
:102E080080429A6038E07B6818683B6859683B687C
:102E1800DB681A4600F044FC7B681B6850211846A2
:102E280000F053FD28E07B6818683B6859683B68E8
:102E3800DB681A4600F0A0FC7B681B686021184616
:102E480000F043FD18E07B6818683B6859683B68E8
:102E5800DB681A4600F024FC7B681B684021184692
:102E680000F033FD08E07B681A683B681B68194668
:102E7800104600F02AFD00BF7B68012283F83D2040
:102E88007B68002283F83C20002318461037BD4693
:102E980080BD80B483B000AF786000BF0C37BD46FA
:102EA8005DF8047B704780B483B000AF786000BFE2
:102EB8000C37BD465DF8047B704780B483B000AF23
:102EC800786000BF0C37BD465DF8047B704780B45E
:102ED80083B000AF786000BF0C37BD465DF8047B57
:102EE8007047000080B485B000AF786039607B68B7
:102EF8001B68FB607B68404A934213D07B68B3F140
:102F0800804F0FD07B683D4A93420BD07B683C4A88
:102F1800934207D07B683B4A934203D07B683A4A86
:102F2800934208D1FB6823F07003FB603B685B6841
:102F3800FA681343FB607B682F4A93421FD07B6873
:102F4800B3F1804F1BD07B682C4A934217D07B6823
:102F58002B4A934213D07B682A4A93420FD07B684E
:102F6800294A93420BD07B68284A934207D07B6852
:102F7800274A934203D07B68264A934208D1FB68CC
:102F880023F44073FB603B68DB68FA681343FB601B
:102F9800FB6823F080023B685B691343FB607B6836
:102FA800FA681A603B689A687B68DA623B681A6854
:102FB8007B689A627B68104A93420FD07B68124AFA
:102FC80093420BD07B68114A934207D07B68104A22
:102FD800934203D07B680F4A934203D13B681A6936
:102FE8007B681A637B6801225A6100BF1437BD46AB
:102FF8005DF8047B704700BF002C014000040040CE
:1030080000080040000C004000340140004001402E
:10301800004401400048014080B487B000AF7860A8
:1030280039607B681B6A23F001027B681A627B683F
:103038001B6A7B617B685B683B617B689B69FB60A3
:10304800FB6823F4803323F07003FB60FB6823F0F4
:103058000303FB603B681B68FA681343FB607B69EA
:1030680023F002037B613B689B687A6913437B61A9
:103078007B682C4A93420FD07B682B4A93420BD033
:103088007B682A4A934207D07B68294A934203D037
:103098007B68284A93420CD17B6923F008037B6143
:1030A8003B68DB687A6913437B617B6923F004031F
:1030B8007B617B681B4A93420FD07B681A4A934214
:1030C8000BD07B68194A934207D07B68184A934211
:1030D80003D07B68174A934211D13B6923F480736C
:1030E8003B613B6923F400733B613B685B693A6968
:1030F80013433B613B689B693A6913433B617B68B7
:103108003A695A607B68FA689A613B685A687B68D2
:103118005A637B687A691A6200BF1C37BD465DF83E
:10312800047B7047002C01400034014000400140FE
:10313800004401400048014080B487B000AF786087
:1031480039607B681B6A23F010027B681A627B680F
:103158001B6A7B617B685B683B617B689B69FB6082
:10316800FB6823F0807323F4E043FB60FB6823F4DF
:103178004073FB603B681B681B02FA681343FB60E3
:103188007B6923F020037B613B689B681B017A699C
:1031980013437B617B68284A934203D07B68274AA4
:1031A80093420DD17B6923F080037B613B68DB6828
:1031B8001B017A6913437B617B6923F040037B61C0
:1031C8007B681D4A93420FD07B681C4A93420BD000
:1031D8007B681B4A934207D07B681A4A934203D004
:1031E8007B68194A934213D13B6923F480633B619E
:1031F8003B6923F400633B613B685B699B003A6968
:1032080013433B613B689B699B003A6913433B61ED
:103218007B683A695A607B68FA689A613B685A68C1
:103228007B689A637B687A691A6200BF1C37BD465F
:103238005DF8047B704700BF002C0140003401405A
:1032480000400140004401400048014080B487B07C
:1032580000AF786039607B681B6A23F480727B68F2
:103268001A627B681B6A7B617B685B683B617B6871
:10327800DB69FB60FB6823F4803323F07003FB6099
:10328800FB6823F00303FB603B681B68FA68134381
:10329800FB607B6923F400737B613B689B681B02BE
:1032A8007A6913437B617B68274A934203D07B6822
:1032B800264A93420DD17B6923F400637B613B6806
:1032C800DB681B027A6913437B617B6923F48063A3
:1032D8007B617B681C4A93420FD07B681B4A9342F0
:1032E8000BD07B681A4A934207D07B68194A9342ED
:1032F80003D07B68184A934213D13B6923F4805367
:103308003B613B6923F400533B613B685B691B01EC
:103318003A6913433B613B689B691B013A69134354
:103328003B617B683A695A607B68FA68DA613B6896
:103338005A687B68DA637B687A691A6200BF1C374F
:10334800BD465DF8047B7047002C01400034014005
:1033580000400140004401400048014080B487B06B
:1033680000AF786039607B681B6A23F480527B6801
:103378001A627B681B6A3B617B685B687B617B6860
:10338800DB69FB60FB6823F0807323F4E043FB6098
:10339800FB6823F44073FB603B681B681B02FA68F8
:1033A8001343FB603B6923F400533B613B689B6814
:1033B8001B033A6913433B617B68184A93420FD059
:1033C8007B68174A93420BD07B68164A934207D012
:1033D8007B68154A934203D07B68144A934209D10B
:1033E8007B6923F480437B613B685B699B017A6955
:1033F80013437B617B687A695A607B68FA68DA6193
:103408003B685A687B681A647B683A691A6200BF2D
:103418001C37BD465DF8047B704700BF002C014097
:103428000034014000400140004401400048014090
:1034380080B487B000AF786039607B681B6A23F47A
:1034480080327B681A627B681B6A3B617B685B68B9
:103458007B617B685B6DFB60FB6823F4803323F042
:103468007003FB603B681B68FA681343FB603B69A9
:1034780023F400333B613B689B681B043A691343A0
:103488003B617B68174A93420FD07B68164A934288
:103498000BD07B68154A934207D07B68144A934245
:1034A80003D07B68134A934209D17B6923F48033A4
:1034B8007B613B685B691B027A6913437B617B68AC
:1034C8007A695A607B68FA685A653B685A687B680B
:1034D8009A657B683A691A6200BF1C37BD465DF879
:1034E800047B7047002C014000340140004001403B
:1034F800004401400048014080B487B000AF7860C4
:1035080039607B681B6A23F480127B681A627B68C7
:103518001B6A3B617B685B687B617B685B6DFB60FA
:10352800FB6823F0807323F4E043FB603B681B686F
:103538001B02FA681343FB603B6923F400133B61E9
:103548003B689B681B053A6913433B617B68184AD3
:1035580093420FD07B68174A93420BD07B68164A78
:10356800934207D07B68154A934203D07B68144A7C
:10357800934209D17B6923F480237B613B685B69B3
:103588009B027A6913437B617B687A695A607B681E
:10359800FA685A653B685A687B68DA657B683A69F5
:1035A8001A6200BF1C37BD465DF8047B704700BF38
:1035B800002C01400034014000400140004401401B
:1035C8000048014080B487B000AFF860B9607A6005
:1035D8003B60FB681B6A23F00102FB681A62FB6808
:1035E8009B697B61FB681B6A3B61FB68264A9342C7
:1035F80017D0FB68B3F1804F13D0FB68234A93427E
:103608000FD0FB68224A93420BD0FB68214A9342B1
:1036180007D0FB68204A934203D0FB681F4A9342B5
:1036280001D1012300E00023002B08D07B6923F09F
:1036380003037B617A697B6813437B6103E07B69E1
:1036480043F001037B617B6923F0F0037B613B68F6
:103658001B01DBB27A6913437B613B6923F00A03E0
:103668003B61BB6803F00A033A6913433B61FB689B
:103678007A699A61FB683A691A6200BF1C37BD46CD
:103688005DF8047B704700BF002C01400004004037
:1036980000080040000C0040003401400040014098
:1036A80080B487B000AFF860B9607A60FB681B6AC5
:1036B8007B61FB681B6A23F00102FB681A62FB68E6
:1036C8009B693B613B6923F0F0033B617B681B010D
:1036D8003A6913433B617B6923F00A037B617A698A
:1036E800BB6813437B61FB683A699A61FB687A6936
:1036F8001A6200BF1C37BD465DF8047B704780B472
:1037080087B000AFF860B9607A603B60FB681B6AFD
:1037180023F01002FB681A62FB689B697B61FB68F7
:103728001B6A3B617B6923F440737B617B681B02E6
:103738007A6913437B617B6923F470437B613B683F
:103748001B039BB27A6913437B613B6923F0A00397
:103758003B61BB681B0103F0A0033A6913433B615B
:10376800FB687A699A61FB683A691A6200BF1C377C
:10377800BD465DF8047B704780B487B000AFF86041
:10378800B9607A60FB681B6A23F01002FB681A6252
:10379800FB689B697B61FB681B6A3B617B6923F45F
:1037A80070437B617B681B037A6913437B613B69C8
:1037B80023F0A0033B61BB681B013A6913433B61DB
:1037C800FB687A699A61FB683A691A6200BF1C371C
:1037D800BD465DF8047B704780B487B000AFF860E1
:1037E800B9607A603B60FB681B6A23F48072FB68EF
:1037F8001A62FB68DB697B61FB681B6A3B617B695A
:1038080023F003037B617A697B6813437B617B69DF
:1038180023F0F0037B613B681B01DBB27A69134339
:103828007B613B6923F420633B61BB681B0203F4A3
:1038380020633A6913433B61FB687A69DA61FB6884
:103848003A691A6200BF1C37BD465DF8047B7047B1
:1038580080B487B000AFF860B9607A603B60FB68FD
:103868001B6A23F48052FB681A62FB68DB697B6180
:10387800FB681B6A3B617B6923F440737B617B684F
:103888001B027A6913437B617B6923F470437B6174
:103898003B681B039BB27A6913437B613B6923F442
:1038A80020433B61BB681B0303F420433A6913437D
:1038B8003B61FB687A69DA61FB683A691A6200BFA2
:1038C8001C37BD465DF8047B704780B485B000AFF7
:1038D800786039607B689B68FB60FB6823F0700345
:1038E800FB603A68FB68134343F00703FB607B689F
:1038F800FA689A6000BF1437BD465DF8047B7047CC
:1039080080B487B000AFF860B9607A603B60FB684C
:103918009B687B617B6923F47F437B613B681A0268
:103928007B681A43BB6813437A6913437B61FB685E
:103938007A699A6000BF1C37BD465DF8047B704702
:1039480080B487B000AFF860B9607A60BB6803F0F4
:103958001F03012202FA03F37B61FB681A6A7B6981
:10396800DB431A40FB681A62FB681A6ABB6803F0FB
:103978001F03796801FA03F31A43FB681A6200BF50
:103988001C37BD465DF8047B7047000080B485B0E5
:1039980000AF786039607B6893F83C30012B01D127
:1039A800022345E07B68012283F83C207B680222E1
:1039B80083F83D207B681B685B68FB607B681B683D
:1039C8009B68BB607B681B681C4A934204D07B6879
:1039D8001B681B4A934208D1FB6823F47003FB6001
:1039E8003B685B68FA681343FB60FB6823F070036D
:1039F800FB603B681B68FA681343FB60BB6823F0F5
:103A08008003BB603B689B68BA681343BB607B68F4
:103A18001B68FA685A607B681B68BA689A607B689A
:103A2800012283F83D207B68002283F83C20002394
:103A380018461437BD465DF8047B7047002C0140DA
:103A48000034014080B483B000AF786000BF0C3709
:103A5800BD465DF8047B704780B483B000AF7860E2
:103A680000BF0C37BD465DF8047B704780B483B057
:103A780000AF786000BF0C37BD465DF8047B704727
:103A880080B582B000AF78607B68002B01D101233C
:103A980043E07B6893F87130DBB2002B06D17B687A
:103AA800002283F87020786802F0C2F87B6824222C
:103AB80083F871207B681B687A681268126822F0A4
:103AC80001021A60786800F0EDF90346012B01D174
:103AD800012322E07B685B6A002B02D0786800F043
:103AE8001FFD7B681B687A681268526822F490424E
:103AF8005A607B681B687A681268926822F02A020A
:103B08009A607B681B687A681268126842F0010242
:103B18001A60786800F0A6FD034618460837BD46C7
:103B280080BD000080B584B000AFF860B96013466E
:103B3800FB80FB6893F87230DBB2202B5AD1BB684C
:103B4800002B02D0FB88002B01D1012353E0FB6836
:103B580093F87030012B01D102234CE0FB6801225D
:103B680083F87020FB68BA685A65FB68FA88A3F87E
:103B78005820FB6800225A67FB68222283F87220CB
:103B8800FB68DB6E1E4ADA62FB68DB6E1D4A1A634D
:103B9800FB68DB6E1C4A5A63FB68DB6E00229A6383
:103BA800FB68D86EFB681B6824331946FB685B6D9D
:103BB8001A46FB88FCF7AEFEFB68002283F87020EB
:103BC800FB681B68FA681268126842F480721A600F
:103BD800FB681B68FA681268926842F001029A60F2
:103BE800FB681B68FA681268926842F040029A60A3
:103BF800002300E0022318461037BD4680BD00BFF1
:103C0800014800086B4800088748000880B586B05E
:103C180000AF78607B681B68DB697B617B681B6829
:103C28001B683B617B681B689B68FB607B6903F0D2
:103C38000F03BB60BB68002B13D17B6903F0200323
:103C4800002B0ED03B6903F02003002B09D07B68C2
:103C58001B6E002B00F0FD807B681B6E7868984710
:103C6800F7E0BB68002B00F0BF80FB6803F001039E
:103C7800002B05D13B6903F49073002B00F0B4804E
:103C88007B6903F00103002B0ED03B6903F48073BA
:103C9800002B09D07B681B6801221A627B685B6F66
:103CA80043F001027B685A677B6903F00203002B2B
:103CB8000ED0FB6803F00103002B09D07B681B685A
:103CC80002221A627B685B6F43F004027B685A67C2
:103CD8007B6903F00403002B0ED0FB6803F001039B
:103CE800002B09D07B681B6804221A627B685B6F13
:103CF80043F002027B685A677B6903F00803002BD4
:103D080013D03B6903F02003002B04D1FB6803F0B8
:103D18000103002B09D07B681B6808221A627B68A4
:103D28005B6F43F008027B685A677B685B6F002B08
:103D380000F091807B6903F02003002B0CD03B69D5
:103D480003F02003002B07D07B681B6E002B03D0E9
:103D58007B681B6E786898477B685B6F03F0080385
:103D6800002B06D17B681B689B6803F04003402B3F
:103D780031D1786800F01FFD7B681B689B6803F0F1
:103D88004003402B23D17B681B687A6812689268CD
:103D980022F040029A607B68DB6E002B13D07B68B0
:103DA800DB6E304A9A637B68DB6E1846FCF712FEBE
:103DB8000346002B16D07B68DB6E9B6B7A68D26E4D
:103DC800104698470EE0786800F062F80AE07868D4
:103DD80000F05EF806E0786800F05AF87B68002288
:103DE8005A6738E000BF36E07B6903F48013002B84
:103DF8000DD0FB6803F48003002B08D07B681B6898
:103E08004FF480121A62786800F0A5FD26E07B69FD
:103E180003F08003002B0DD03B6903F08003002BD7
:103E280008D07B685B6E002B17D07B685B6E786868
:103E3800984712E07B6903F04003002B0ED03B69E2
:103E480003F04003002B09D0786800F06AFD00BF3A
:103E580004E000BF02E000BF00E000BF1837BD4625
:103E680080BD00BFFF48000880B483B000AF786011
:103E780000BF0C37BD465DF8047B704780B483B043
:103E880000AF786000BF0C37BD465DF8047B704713
:103E980080B483B000AF786000BF0C37BD465DF8D2
:103EA800047B70472DE9B04388B000AF78600023E9
:103EB800FB611023FB7600237B8100237B610023B9
:103EC800FB740023FB607B689A687B681B691A4354
:103ED8007B685B691A437B68DB691343FB617B681A
:103EE8001A687B681B681968AA4B0B40F9690B4371
:103EF80013607B681B687A681268526822F4405124
:103F08007A68D2680A435A607B689B69FB617B6860
:103F18001B68A14A934204D07B681B6AFA69134361
:103F2800FB617B681B687A681268926822F43061CA
:103F3800FA690A439A607B681B68984A934221D1C0
:103F4800974BD3F8883003F00303032B16D801A24C
:103F580052F823F06D3F0008793F0008733F0008CE
:103F68007F3F00080123FB76E4E00223FB76E1E0D3
:103F78000423FB76DEE00823FB76DBE01023FB76E8
:103F880000BFD7E07B681B68864A934234D1844BD4
:103F9800D3F8883003F00C030C2B29D801A252F86F
:103FA80023F000BFE13F0008F93F0008F93F00088F
:103FB800F93F0008ED3F0008F93F0008F93F000805
:103FC800F93F0008E73F0008F93F0008F93F0008FB
:103FD800F93F0008F33F00080023FB76AAE002231C
:103FE800FB76A7E00423FB76A4E00823FB76A1E098
:103FF8001023FB7600BF9DE07B681B686A4A9342EA
:1040080020D1674BD3F8883003F03003102B0FD042
:10401800102B02D8002B05D010E0202B05D0302B18
:1040280009D00BE00023FB7684E00223FB7681E0D5
:104038000423FB767EE00823FB767BE01023FB76E7
:1040480000BF77E07B681B68584A934220D1544BE5
:10405800D3F8883003F0C003402B0FD0402B02D890
:10406800002B05D010E0802B05D0C02B09D00BE029
:104078000023FB765EE00223FB765BE00423FB76FD
:1040880058E00823FB7655E01023FB7600BF51E08B
:104098007B681B68464A934224D1414BD3F8883049
:1040A80003F44073B3F5807F12D0B3F5807F02D854
:1040B800002B07D012E0B3F5007F06D0B3F5407FA0
:1040C80009D00BE00023FB7634E00223FB7631E0D5
:1040D8000423FB762EE00823FB762BE01023FB76E7
:1040E80000BF27E07B681B682B4A934223D12C4BE7
:1040F800D3F8883003F44063B3F5806F12D0B3F57A
:10410800806F02D8002B07D012E0B3F5006F06D0FD
:10411800B3F5406F09D00BE00023FB760AE00223D9
:10412800FB7607E00423FB7604E00823FB7601E036
:104138001023FB7600BF7B681B68174A934240F048
:10414800EE80FB7E082B37D801A252F823F000BF7F
:104158007D410008C141000885410008C1410008AF
:104168008B410008C1410008C1410008C141000855
:1041780093410008FDF75CFCF86020E00D4BFB6004
:104188001DE0FDF7ADFBF86019E04FF40043FB605C
:1041980015E000BFF369FFEF0080004000380140E0
:1041A800001002400044004000480040004C00401D
:1041B800005000400024F4000123FB7400BFFB689A
:1041C800002B00F09E817B685A6813465B001A44F6
:1041D800FB689A4205D87B685B681A03FB689A42B9
:1041E80002D20123FB748CE1FB7E082B00F2848051
:1041F80001A252F823F000BF25420008014300083D
:10420800654200080143000899420008014300087C
:104218000143000801430008D7420008FDF708FCE5
:1042280003464FF000044FEA042949EA13694FEAAC
:1042380003287B685B685B084FF0000418EB0300F9
:1042480049EB04017B685B684FF000041A4623467B
:10425800FBF7B6FF03460C467B6150E07B685B6862
:104268005B084FF00004AD494FF0000213EB010862
:1042780044EB0209404649467B685B684FF00004FE
:104288001A462346FBF79CFF03460C467B6136E043
:10429800FDF726FB03461A464FF000031D0245EAC8
:1042A800126514027B685B685B081A464FF00003CE
:1042B800A01845EB03017B685B684FF000041A46C1
:1042C8002346FBF77DFF03460C467B6117E07B68BE
:1042D8005B685B084FF0000413F5000044F100012F
:1042E8007B685B684FF000041A462346FBF768FFBB
:1042F80003460C467B6102E00123FB7400BF7B6927
:10430800B3F5407F08D37B69B3F5801F04D27B687F
:104318001B687A69DA60F4E00123FB74F1E07B68DA
:10432800DB69B3F5004F7ED1FB7E082B5BD801A279
:1043380052F823F0614300087F4300089D430008BA
:10434800EF430008B9430008EF430008EF430008B3
:10435800EF430008D7430008FDF76AFB03465A00FD
:104368007B685B685B081A447B685B68B2FBF3F3A5
:104378009BB27B613AE0FDF771FB03465A007B680C
:104388005B685B081A447B685B68B2FBF3F39BB21B
:104398007B612BE07B685B685B0803F1F47303F5D2
:1043A80090437A685268B3FBF2F39BB27B611DE0DD
:1043B800FDF796FA03465A007B685B685B081A4467
:1043C8007B685B68B2FBF3F39BB27B610EE07B68B2
:1043D8005B685B0803F580327B685B68B2FBF3F3CC
:1043E8009BB27B6102E00123FB7400BF7B690F2B4A
:1043F80016D97B69B3F5803F12D27B699BB223F053
:104408000F037B817B695B089BB203F007039AB2B9
:104418007B8913437B817B681B687A89DA6070E04B
:104428000123FB746DE0FB7E082B59D801A252F8DA
:1044380023F000BF614400087D4400089944000847
:10444800E9440008B5440008E9440008E9440008C4
:10445800E9440008D1440008FDF7EAFA02467B68FF
:104468005B685B081A447B685B68B2FBF3F39BB23A
:104478007B6138E0FDF7F2FA02467B685B685B080F
:104488001A447B685B68B2FBF3F39BB27B612AE05A
:104498007B685B685B0803F5740303F510537A685F
:1044A8005268B3FBF2F39BB27B611CE0FDF718FA8C
:1044B80002467B685B685B081A447B685B68B2FBF2
:1044C800F3F39BB27B610EE07B685B685B0803F5E6
:1044D80000427B685B68B2FBF3F39BB27B6102E04E
:1044E8000123FB7400BF7B690F2B08D97B69B3F5E7
:1044F800803F04D27B681B687A69DA6001E0012397
:10450800FB747B6800221A667B6800225A66FB7C73
:1045180018462037BD46BDE8B08300BF000024F42C
:1045280080B483B000AF78607B685B6A03F00103F6
:10453800002B0AD07B681B687A681268526822F4DC
:1045480000317A68926A0A435A607B685B6A03F0B2
:104558000203002B0AD07B681B687A6812685268CD
:1045680022F480317A68D26A0A435A607B685B6AAF
:1045780003F00403002B0AD07B681B687A68126872
:10458800526822F480217A68126B0A435A607B6869
:104598005B6A03F00803002B0AD07B681B687A6803
:1045A8001268526822F400417A68526B0A435A60D2
:1045B8007B685B6A03F01003002B0AD07B681B68DA
:1045C8007A681268926822F480517A68926B0A437A
:1045D8009A607B685B6A03F02003002B0AD07B6833
:1045E8001B687A681268926822F400517A68D26B64
:1045F8000A439A607B685B6A03F04003002B1AD079
:104608007B681B687A681268526822F480117A689D
:10461800126C0A435A607B681B6CB3F5801F0AD181
:104628007B681B687A681268526822F4C0017A684D
:10463800526C0A435A607B685B6A03F08003002B64
:104648000AD07B681B687A681268526822F40021D5
:104658007A68926C0A435A6000BF0C37BD465DF811
:10466800047B704780B586B002AF78600023FB609A
:104678007B6800225A67FBF77DFFF8607B681B6840
:104688001B6803F00803082B0ED16FF07E430093DC
:10469800FB6800224FF40011786800F02CF80346FC
:1046A800002B01D0032322E07B681B681B6803F002
:1046B8000403042B0ED16FF07E430093FB680022A5
:1046C8004FF48001786800F016F80346002B01D0FB
:1046D80003230CE07B68202283F871207B6820226A
:1046E80083F872207B68002283F870200023184624
:1046F8001037BD4680BD80B584B000AFF860B960A2
:104708003B601346FB712CE0BB69B3F1FF3F28D037
:10471800BB69002B07D0FBF72DFF02463B68D21A76
:10472800BB699A421DD9FB681B68FA68126812684F
:1047380022F4D0721A60FB681B68FA6812689268E3
:1047480022F001029A60FB68202283F87120FB683E
:10475800202283F87220FB68002283F8702003234C
:104768000FE0FB681B68DA69BB681A40BB689A42AD
:104778000CBF01230023DBB21A46FB799A42C3D04F
:10478800002318461037BD4680BD80B483B000AF03
:1047980078607B681B687A681268126822F0C00229
:1047A8001A607B68202283F8712000BF0C37BD4651
:1047B8005DF8047B704780B483B000AF78607B6895
:1047C8001B687A681268126822F490721A607B6813
:1047D8001B687A681268926822F001029A607B6806
:1047E800202283F872207B6800221A6600BF0C37EB
:1047F800BD465DF8047B704780B584B000AF786033
:104808007B689B6AFB607B681B681B6803F020035E
:10481800002B1FD1FB680022A3F85A20FB681B68F5
:10482800FA681268126822F480721A60FB681B68C2
:10483800FA681268926822F001029A60FB681B68A5
:10484800FA681268926822F040029A60FB68202297
:1048580083F87220F86800F01BFB00BF1037BD46D4
:1048680080BD80B584B000AF78607B689B6AFB60D0
:10487800F868FFF703FB00BF1037BD4680BD80B561
:1048880084B000AF78607B689B6AFB60FB6893F834
:104898007130DBB2212B0DD1FB681B689B6803F0DC
:1048A8008003802B06D1FB680022A3F85220F86809
:1048B800FFF76BFFFB6893F87230DBB2222B0DD148
:1048C800FB681B689B6803F04003402B06D1FB681C
:1048D8000022A3F85A20F868FFF76DFFFB685B6FAA
:1048E80043F01002FB685A67F868FFF7D1FA00BF77
:1048F8001037BD4680BD80B584B000AF78607B6856
:104908009B6AFB60FB680022A3F85A20FB68002220
:10491800A3F85220F868FFF7BBFA00BF1037BD466E
:1049280080BD80B582B000AF78607B681B687A680C
:104938001268126822F040021A607B68202283F80D
:1049480071207B6800225A667868FFF78DFA00BFED
:104958000837BD4680BD80B483B000AF786000BF23
:104968000C37BD465DF8047B7047000080B582B007
:1049780000AF104A0F4B9B6C43F0010393640D4B3F
:104988009B6C03F001037B607B68002200211020F0
:10499800FBF7D1FE1020FBF7EAFE002200211120D0
:1049A800FBF7C9FE1120FBF7E2FE00BF0837BD4642
:1049B80080BD00BF0010024080B58AB000AF07F18B
:1049C800140300221A605A609A60DA601A61B64AC3
:1049D800B54BDB6C43F01003D364B34BDB6C03F0D3
:1049E80010033B613B69B04AAF4BDB6C43F00403F7
:1049F800D364AD4BDB6C03F00403FB60FB68AA4A8D
:104A0800A94BDB6C43F00103D364A74BDB6C03F0C9
:104A18000103BB60BB68A44AA34BDB6C43F00203F1
:104A2800D364A14BDB6C03F002037B607B689E4A76
:104A38009D4BDB6C43F00803D3649B4BDB6C03F0AA
:104A480008033B603B68002209219848FCF78AFA72
:104A580001224FF400719648FCF784FA00224FF4C3
:104A680000619348FCF77EFA002280219148FCF708
:104A780079FAF4237B610223BB610023FB610323E2
:104A88003B620D237B6207F1140319468748FCF744
:104A9800C1F808237B610123BB610023FB6102236A
:104AA8003B6207F1140319468048FCF7B3F84FF44A
:104AB80010537B61804BBB610023FB6107F114033A
:104AC80019467B48FCF7A6F807237B610023BB61E6
:104AD8000023FB6107F1140319467548FCF79AF89F
:104AE8004FF4FC737B610223BB610023FB6100234D
:104AF8003B620B237B6207F1140319466C48FCF7F1
:104B080089F810237B616C4BBB610023FB6107F1C3
:104B1800140319464FF09040FCF77CF848F2C07334
:104B28007B610223BB610023FB6100233B620B23F3
:104B38007B6207F1140319464FF09040FCF76AF8BE
:104B48004FF233237B610223BB610023FB61002307
:104B58003B620B237B6207F1140319465748FCF7A5
:104B680059F84FF400737B610223BB610023FB619A
:104B780000233B620D237B6207F1140319464B485F
:104B8800FCF748F84FF440637B611223BB610123B3
:104B9800FB6103233B6204237B6207F1140319467C
:104BA8004648FCF737F84FF47F437B610223BB612B
:104BB8000023FB6100233B620B237B6207F1140394
:104BC80019463C48FCF726F84FF420637B61012323
:104BD800BB610023FB6100233B6207F11403194604
:104BE8003348FCF717F84FF4C0537B610223BB61CD
:104BF8000023FB6103233B620A237B6207F1140352
:104C080019464FF09040FCF705F81A237B61022300
:104C1800BB610023FB6103233B6205237B6207F131
:104C2800140319462348FBF7F5FF04237B61224B45
:104C3800BB610023FB6107F1140319461D48FBF70C
:104C4800E9FF80237B610123BB610023FB61032310
:104C58003B6207F1140319461648FBF7DBFF4FF4D4
:104C680080737B61144BBB610023FB6107F1140364
:104C780019461248FBF7CEFF01237B610123BB6174
:104C88000023FB6100233B6207F114031946074820
:104C9800FBF7C0FF02237B61074BBB610023FB616D
:104CA80007F1140319460BE00010024000100048F9
:104CB80000080048000C00480000121000040048DA
:104CC8000348FBF7A7FF00BF2837BD4680BD00BFDC
:104CD8000010004880B483B000AF786087ED000A08
:104CE8007B683A685A6300BF0C37BD465DF8047BA1
:104CF800704780B483B000AF786087ED000A7B68A6
:104D08003A681A6000BF0C37BD465DF8047B7047EF
:104D180080B483B000AF78607B689B6807EE903AF8
:104D2800B0EE670A0C37BD465DF8047B704780B467
:104D380085B000AFF860B9607A603B60FA68BB681C
:104D4800D31AB9693A688A1A02FB03F27968BB6810
:104D5800CB1A92FBF3F23B68134418461437BD464E
:104D68005DF8047B7047000080B584B002AF7860BE
:104D78007B68384A934269D17B681B7F012B2FD10E
:104D8800344B1B685B6B07EE903AF8EE677A324B50
:104D9800C3ED007A2F4B1B6800225A622F4B012269
:104DA8001A602D4BD3ED007A9FED2D7AF4EEC77A79
:104DB800F1EE10FA11D8284BD3ED007AFDEEE77A20
:104DC800FF23009300233222142117EE900AFFF7E5
:104DD800AEFF0346C3F1FF0300E00023214A13603E
:104DE8001D4B93ED007ADFED206AC7EE267A1F4B44
:104DF800C3ED007A1E4BD3ED007A1E4B93ED007A7B
:104E08001D4BD3ED006A194B93ED006A1B4B1B88B1
:104E180005EE903AF8EE655A194B1B8805EE103AE4
:104E2800B8EE455A174B1978174B1B781A46F0EE0F
:104E3800452AB0EE652AF0EE461AB0EE661AF0EE94
:104E4800470AB0EE670A114800F020FA00BF083799
:104E5800BD4680BDF0000020980000209C00002086
:104E680000004842A800002000007A4438000020D2
:104E780004000020080000200C0000203C00002056
:104E880010000020120000203E0000204C000020EE
:104E980080B582B000AF7860454B1B78DBB21A460C
:104EA800444B9B5CDAB2444B1A70444B1B78DBB220
:104EB8001A46404B9B5CDAB2414B1A70414B1B7847
:104EC800DBB21A463B4B9B5CDAB23F4B1A703A4B4B
:104ED8001B78DBB2782B0ED1394B1B78DAB23B4BFF
:104EE8001A703B4B1B78DAB23A4B1A70364B1B7868
:104EF800DAB2374B1A70304B1B78DBB2792B20D1E2
:104F0800354B1B78DAB2354B1A702F4B1B78DAB257
:104F1800314B1A702C4B1B78DBB21A462D4B1B7881
:104F2800DBB2D31A002BB8BF5B42012B05DC2B4B3D
:104F38001B78DAB2284B1A7003E0234B1B78224BFC
:104F48001B78234B1B78DBB29AB2254B1A80244B73
:104F58001B889BB207EE903AF8EE677AB0EE670AC4
:104F68002048FFF7B7FE204B1B6807EE903AF8EE93
:104F7800E77AB0EE670A1B48FFF7BBFE194800F056
:104F8800D8F91848FFF7C4FEF0EE407AFDEEE77A4C
:104F9800C7ED007A3B785AB2144B1A7003220549C0
:104FA8001348FEF7BFFD00BF0837BD4680BD00BFF0
:104FB8003400002048000020A0000020000000204D
:104FC8004400002001000020AF00002094000020D1
:104FD800AE000020AD000020AC0000208C000020B6
:104FE800020000204C000020A8000020350000200E
:104FF8000002002080B400AF094B1B68094AD2EDBB
:10500800027A9FED097A77EE677AFCEEE77A17EE77
:10501800902A5A6300BFBD465DF8047B704700BF05
:10502800300100204C00002000007F4380B400AF16
:10503800074B1B78DBB2792B05D1064B1B68064A58
:105048001278D2B25A6300BFBD465DF8047B704740
:10505800A0000020B0000020AC00002080B500AF08
:10506800FBF736FA00F094F8FFF7A6FCFFF77EFC92
:1050780000F05EFB00F0DEFB00F054FC00F0A8FD41
:105088000023304A1360304A1360304B00221A6004
:105098002E4B1B682E4A136000212E48FDF7EAFAB2
:1050A80004212C48FDF7E6FA00212B48FDF75CFAAD
:1050B80000212A48FDF758FA04212848FDF754FA38
:1050C800032227492748FEF72DFD274BD3ED007A09
:1050D800264B93ED007A264BD3ED006A254B93EDD2
:1050E800006A254B1B8805EE903AF8EE655A234B6B
:1050F8001B8805EE103AB8EE455A214B1978214B1A
:105108001B781A46F0EE452AB0EE652AF0EE461AEC
:10511800B0EE661AF0EE470AB0EE670A1A4800F0D9
:10512800B5F81A4B1B889BB207EE903AF8EE677AEF
:10513800B0EE670A1448FFF7CDFDFFF75BFFFFF7F6
:1051480075FFFAE7900000209C000020A4000020D2
:1051580088000020F0000020B0000020300100206E
:105168004800002000020020040000200800002061
:105178000C000020380000203C0000201000002017
:10518800120000203E0000204C00002002000020F9
:1051980080B5B8B000AF07F19C034422002118463F
:1051A80000F03AFE07F1880300221A605A609A60FC
:1051B800DA601A613B4688220021184600F02CFE6E
:1051C8001023C7F89C300123C7F8B4300023C7F870
:1051D800B8306023C7F8BC300223C7F8C4300123B5
:1051E800C7F8C8300123C7F8CC301423C7F8D0302B
:1051F8000723C7F8D4300223C7F8D8300223C7F8EA
:10520800DC3007F19C031846FBF728FF0346002B08
:1052180001D000F034F80F23C7F888300323C7F80B
:105228008C309023C7F890300023C7F894300023BF
:10523800C7F8983007F1880300211846FCF772FA7E
:105248000346002B01D000F01AF802233B6000232C
:10525800FB633B461846FCF777FC0346002B01D05E
:1052680000F00DF84FF40070FBF7A2FE0346002B88
:1052780001D000F004F800BFE037BD4680BD80B41F
:1052880000AF00BFBD465DF8047B704780B588B0AD
:1052980000AFF86187ED060AC7ED050A87ED041A25
:1052A800C7ED031A87ED022AC7ED012A0B46FB70EA
:1052B8001346BB70FB69BA7883F83820FB69FA7823
:1052C80083F83920FB694FF000025A62FB694FF0FE
:1052D80000021A60FB694FF000025A60FB694FF048
:1052E80000029A60FB694FF000025A63D7ED037A17
:1052F800F5EEC07AF1EE10FA03DDFB69FA689A62FE
:1053080003E0FB694FF07E529A62D7ED010A97EDF0
:10531800020AF86900F09EF897ED041AD7ED050A1D
:1053280097ED060AF86900F0F0F800BF2037BD468F
:1053380080BD80B485B000AF78607B6893F8393061
:10534800002B01D100237FE07B6893ED0D7A7B6809
:10535800D3ED007A77EE677AC7ED037A7B6893ED31
:10536800097A7B68D3ED076AD7ED037A66EEA77AE8
:1053780077EE277A7B68C3ED097A7B6893ED097A23
:105388007B68D3ED0B7AB4EEE77AF1EE10FA02D52A
:105398007B68DB6A0FE07B6893ED097A7B68D3ED65
:1053A8000C7AB4EEE77AF1EE10FA02DD7B681B6B3B
:1053B80001E07B685B6A7A6853627B6893ED007AE8
:1053C8007B68D3ED017A77EE677AC7ED027A7B685E
:1053D80093ED067AD7ED037A27EE277A7B68D3ED2B
:1053E800097A37EE277A7B68D3ED086AD7ED027A17
:1053F80066EEA77A77EE677A7B68C3ED027A7B68F8
:1054080093ED027A7B68D3ED0B7AB4EEE77AF1EE8E
:1054180010FA02D57B68DB6A0FE07B6893ED027AAD
:105428007B68D3ED0C7AB4EEE77AF1EE10FA02DD80
:105438007B681B6B01E07B689B687A6893607B687C
:105448001A687B685A60012318461437BD465DF810
:10545800047B704780B485B000AFF86087ED020A1E
:10546800C7ED010A97ED027AD7ED017AB4EEE77A33
:10547800F1EE10FA43DAFB68BA68DA62FB687A6818
:105488001A63FB6893F83930012B39D1FB6893ED27
:10549800027AD7ED027AB4EEE77AF1EE10FA01D586
:1054A800BB680DE0FB6893ED027AD7ED017AB4EEA4
:1054B800E77AF1EE10FA01DD7B6801E0FB689B6892
:1054C800FA689360FB6893ED097AD7ED027AB4EE37
:1054D800E77AF1EE10FA01D5BB680DE0FB6893EDB1
:1054E800097AD7ED017AB4EEE77AF1EE10FA01DD28
:1054F8007B6801E0FB685B6AFA68536200E000BF02
:105508001437BD465DF8047B704780B485B000AFA2
:10551800F86087ED020AC7ED010A87ED001AD7ED9A
:10552800027AF5EEC07AF1EE10FA4BD4D7ED017A93
:10553800F5EEC07AF1EE10FA44D4D7ED007AF5EE24
:10554800C07AF1EE10FA3DD4FB68BA68DA60FB68FD
:105558007A681A61FB683A685A61FB68BA689A61A6
:10556800FB6893ED0A7AD7ED017A67EE277AFB6834
:10557800C3ED077AFB6893ED0A7AD7ED006AC6EEA9
:10558800877AFB68C3ED087AFB6893F83830012BFB
:1055980019D1FB68D3ED067AF1EE677AFB68C3EDA3
:1055A800067AFB68D3ED077AF1EE677AFB68C3EDFC
:1055B800077AFB68D3ED087AF1EE677AFB68C3EDEA
:1055C800087A00E000BF1437BD465DF8047B7047D9
:1055D80080B483B000AF0F4A0E4B1B6E43F001033B
:1055E80013660C4B1B6E03F001037B607B68094A52
:1055F800084B9B6D43F080539365064B9B6D03F0FE
:1056080080533B603B6800BF0C37BD465DF8047BA8
:10561800704700BF0010024080B400AF00BFBD4615
:105628005DF8047B704780B400AFFEE780B400AF3C
:10563800FEE780B400AFFEE780B400AFFEE780B4B9
:1056480000AF00BFBD465DF8047B704780B400AF73
:1056580000BFBD465DF8047B704780B400AF00BF53
:10566800BD465DF8047B704780B500AFFAF774FF5C
:1056780000BF80BD80B500AF0248FBF7ECF900BF62
:1056880080BD00BF7001002080B500AF0248FBF765
:10569800E2F900BF80BD00BFB801002080B500AFAF
:1056A8000248FEF7B3FA00BF80BD00BF0002002029
:1056B80080B500AF0248FDF74DF800BF80BD00BFC0
:1056C800F000002080B400AF174A174BD3F8883099
:1056D80043F47003C2F88830144A144B1B6843F033
:1056E80001031360114B00229A60104A0F4B1B688C
:1056F80023F0A85323F4102313600C4B4FF480526B
:10570800DA600A4A094B1B6823F480231360074BAD
:1057180000229A61044B4FF000629A6000BFBD46B8
:105728005DF8047B704700BF00ED00E00010024008
:1057380080B58EB000AF07F1280300221A605A60C6
:105748009A60DA6007F11C0300221A605A609A60B6
:105758003B4600221A605A609A60DA601A615A6100
:105768009A61334B4FF080421A60314B40F21F323E
:105778005A602F4B00229A602D4BFE22DA602C4B88
:1057880000221A612A4B00229A612948FCF78CFEF4
:105798000346002B01D0FFF772FD4FF48053BB6224
:1057A80007F1280319462248FDF7A8FA0346002BFB
:1057B80001D0FFF764FD1E48FCF7A1FE0346002B4D
:1057C80001D0FFF75CFD0023FB6100237B6207F13A
:1057D8001C0319461648FEF7D9F80346002B01D0DA
:1057E800FFF74DFD60233B6000237B600023BB6017
:1057F80000233B613B46002219460D48FDF766F938
:105808000346002B01D0FFF73AFD3B460422194618
:105818000748FDF75BF90346002B01D0FFF72FFD82
:10582800034800F05FF900BF3837BD4680BD00BFB0
:105838003001002080B58EB000AF07F128030022A8
:105848001A605A609A60DA6007F11C0300221A6035
:105858005A609A603B4600221A605A609A60DA6081
:105868001A615A619A612D4B2D4A1A602B4B4F22AF
:105878005A602A4B00229A60284B40F2E732DA60DD
:10588800264B00221A61254B00229A612348FCF717
:105898000BFE0346002B01D0FFF7F1FC4FF48053B9
:1058A800BB6207F1280319461C48FDF727FA03468F
:1058B800002B01D0FFF7E3FC1848FCF720FE034655
:1058C800002B01D0FFF7DBFC0023FB6100237B6288
:1058D80007F11C0319461148FEF758F80346002B38
:1058E80001D0FFF7CCFC60233B6000237B600023E2
:1058F800BB6000233B613B46002219460748FDF781
:10590800E5F80346002B01D0FFF7B9FC034800F087
:10591800E9F800BF3837BD4680BD00BFB0000020A1
:105928000008004080B588B000AF07F114030022DA
:105938001A605A609A603B1D00221A605A609A6089
:10594800DA60274B274A1A60254B41F63F725A60A6
:10595800234B00229A60224B234ADA60204B002214
:105968001A611F4B00229A611D48FCF757FE034637
:10597800002B01D0FFF783FC00237B610023FB6130
:1059880007F1140319461648FEF700F80346002BE2
:1059980001D0FFF774FC02237B600123BB60002366
:1059A800FB6000233B613B1D002219460C48FCF7B5
:1059B800F0FF0346002B01D0FFF761FC00237B605A
:1059C8003B1D042219460648FCF7E3FF0346002B5B
:1059D80001D0FFF754FC00BF2037BD4680BD00BF93
:1059E800F0000020000C00407F96980080B485B03D
:1059F80000AF78607B681B68B3F1804F0CD1124A06
:105A0800114B9B6D43F0010393650F4B9B6D03F0A6
:105A18000103FB60FB6810E07B681B680B4A93423C
:105A28000BD1094A084B9B6D43F004039365064B61
:105A38009B6D03F00403BB60BB6800BF1437BD4611
:105A48005DF8047B704700BF00100240000800406A
:105A580080B58AB000AF786007F1140300221A609D
:105A68005A609A60DA601A617B681B681B4A934225
:105A780030D11B4A1A4B9B6D43F008039365184BB2
:105A88009B6D03F008033B613B69154A144BDB6CC3
:105A980043F00103D364124BDB6C03F00103FB609A
:105AA800FB6803237B610223BB610123FB610023A5
:105AB8003B6202237B6207F1140319464FF09040C2
:105AC800FBF7A8F8002200213220FAF734FE322032
